:100000000C9446000C9465000C9465000C946500FB
:100010000C9465000C9465000C9465000C946500CC
:100020000C9465000C9465000C9465000C946500BC
:100030000C9465000C9465000C9465000C946500AC
:100040000C9465000C9465000C9465000C9465009C
:100050000C9465000C9465000C9465000C9465008C
:100060000C9465000C9465000C9465000C9465007C
:100070000C9465000C9465000C9465000C9465006C
:100080000C9465000C9465000C94650011241FBE4F
:10009000CFEFD0E1DEBFCDBF11E0A0E0B1E0E6E4FC
:1000A000F7E000E00BBF02C007900D92A432B10749
:1000B000D9F711E0A4E2B1E001C01D92AE33B1075F
:1000C000E1F70E9452020C94A1030C940000CF931C
:1000D000DF93EC0189B390E002C0959587956A950E
:1000E000E2F7FE01EE0FFF1F80FD1AC0DF01A15DE8
:1000F000BE4F8D919C911197019611969C938E9372
:10010000EB5DFE4F11821082855F9140FCF0FE0195
:10011000E75CFE4F80818823B9F481E0808317C0BB
:10012000DF01AB5DBE4F8D919C91119701961196A9
:100130009C938E93E15DFE4F11821082855F91400A
:100140002CF0C75CDE4F18821D921C9280E0DF917C
:10015000CF910895D098D198D298D398D4988BB352
:100160008F618BBBD69A089584EB91E990938700B9
:100170008093860080EC9FE89BBD8ABD28E830E92B
:1001800039BD28BD88E49AE890937900809378007F
:10019000309385002093840080E090E020EA3FE0E7
:1001A000F9013197F1F7019641E08C329407C1F7DC
:1001B00008958130910509F450C08230910509F409
:1001C000B6C0892BA9F008958091780090917900AC
:1001D00088549A4878F0809178009091790001973E
:1001E0009093790080937800C9010197F1F702C0DC
:1001F00020EE3EE2C99BE8CF14C080917800909138
:1002000079008951924978F4809178009091790031
:1002100001969093790080937800C9010197F1F7D6
:1002200002C020EE3EE2CB9BE8CF08958AB59BB595
:10023000805A9C48A0F08AB59BB501979BBD8ABDAA
:100240008091840090918500019690938500809321
:100250008400C9010197F1F702C020EE3EE2C89B7D
:10026000E5CF17C08AB59BB5815E9249A0F48AB5E7
:100270009BB501969BBD8ABD8091840090918500BD
:1002800001979093850080938400C9010197F1F74D
:1002900002C020EE3EE2CC9BE5CF14C080918600E8
:1002A0009091870080519B4878F0809186009091D2
:1002B000870001979093870080938600C90101977A
:1002C000F1F702C020EE3EE2C99BE8CF14C0809156
:1002D0008600909187008159974978F48091860033
:1002E0009091870001969093870080938600C901C2
:1002F0000197F1F702C020EE3EE2CB9BE8CF0895D4
:1003000088B599B5805C9F48A0F088B599B50197EC
:1003100099BD88BD8091840090918500019790934C
:10032000850080938400C9010197F1F702C020EE97
:100330003EE2CC9BE5CF17C088B599B58150964970
:10034000A0F488B599B5019699BD88BD80918400C7
:100350009091850001969093850080938400C90157
:100360000197F1F702C020EE3EE2C89BE5CF14C032
:10037000809186009091870080519B4878F0809111
:100380008600909187000197909387008093860064
:10039000C9010197F1F702C020EE3EE2C99BE8CF08
:1003A00014C080918600909187008159974978F414
:1003B00080918600909187000196909387008093AA
:1003C0008600C9010197F1F702C020EE3EE2CB9B07
:1003D000E8CF089520E030E040EA5FE005C0FA0190
:1003E0003197F1F72F5F3F4F28173907C4F308956E
:1003F0000E94D70280912401882339F481E0809300
:10040000240180E091E06DE008C0813051F482E089
:10041000809324018EE091E06AE00E94DF02DE9A80
:100420000895823041F41092240189E191E069E05D
:100430000E94DF02DE9808958FB582608FBD8EB571
:1004400088618EBDEBE8F0E0808182608083AAE85D
:10045000B0E08C9188618C938FB58C6F8FBD80815B
:10046000806F80838EB582608EBD8C9182608C930C
:1004700080E49CE9909381008093800097BD86BDC5
:1004800087B3806E87BB82B1886182B90E94A50262
:100490000E94D7020E94790389E191E069E00E94FD
:1004A000DF0208950E941C020E94B4000E94AA006C
:1004B00082E090E062E00E946700882311F00E94D1
:1004C000F8018091240190E00E94D900F1CF282FFB
:1004D000207F25BBA89AAA9A20EA3FE0F90131972C
:1004E000F1F7AA98A898F9013197F1F790E044E064
:1004F000880F991F4A95E1F785BBA89AAA9AC90166
:100500000197F1F7AA98A898C9010197F1F7089502
:10051000282F207F25BBAA9A20EA3FE0F9013197D6
:10052000F1F7AA98F9013197F1F790E054E0880FBC
:10053000991F5A95E1F785BBAA9AC9010197F1F76E
:10054000AA98C9010197F1F7089580E69AEE0197FC
:10055000F1F715BA15BA84B3806F84BB84B3876092
:1005600084BB80E385BBAA9A20EA3FE0F90131977A
:10057000F1F7AA98F9013197F1F785BBAA9AC90159
:100580000197F1F7AA98C9010197F1F780E285BBBD
:10059000AA9AC9010197F1F7AA98C9010197F1F741
:1005A00088E20E9488028EE00E948802089581E01D
:1005B0000E948802089582E00E94880208950F93A5
:1005C0001F93CF93DF93062F009749F0EC0110E0C3
:1005D00004C089910E9467021F5F1017D0F3DF915A
:1005E000CF911F910F910895623031F0633031F057
:1005F000613029F4805C03C08C5E01C08C5A806835
:100600000E94880208951F93CF93DF93EC01862FF9
:10061000642F0E94F40210E003C00E9467021F5F73
:10062000FE01E10FF11D84918823B9F7DF91CF918D
:100630001F9108951F93CF93DF93EC01862F642FB2
:100640000E94F40210E003C00E9467021F5FFE01D7
:10065000E10FF11D80818823B9F7DF91CF911F91C0
:100660000895EF92FF920F931F93CF93DF937C0136
:10067000162F110F110F110F1064C0E0D0E0F70119
:10068000EC0FFD1F0491812F8C0F0E948802802F98
:100690000E9467022196C830D10589F7DF91CF917A
:1006A0001F910F91FF90EF9008950F931F93082FC4
:1006B00010E004C08EE10E9488021F5F1017D0F383
:1006C0001F910F9108950F931F93082F10E004C0FE
:1006D00088E10E9488021F5F1017D0F31F910F91CD
:1006E00008958EE00E94880208958FE00E9488029B
:1006F00008958CE00E948802089588E00E94880294
:1007000008958CE00E94880208950F931F93082F8C
:1007100010E004C080E10E9488021F5F1017D0F330
:100720001F910F9108950F931F93082F10E004C09D
:1007300084E10E9488021F5F1017D0F31F910F9170
:060740000895F894FFCFBC
:1007460053484F554C444552204D4F444500454C67
:10075600424F57204D4F44450047524950204D4F78
:040766004445000006
:00000001FF
